:100000000C9434000C9451000C9451000C94510049
:100010000C9451000C9451000C9451000C9451001C
:100020000C9451000C9451000C9451000C9451000C
:100030000C9451000C9409020C9451000C94510042
:100040000C9451000C9451000C9451000C945100EC
:100050000C9451000C94C7020C9451000C94510064
:100060000C9451000C94510011241FBECFEFD8E026
:10007000DEBFCDBF11E0A0E0B1E0ECECF9E002C0E2
:1000800005900D92AA31B107D9F721E0AAE1B1E0BC
:1000900001C01D92A733B207E1F70E94BF020C9482
:1000A000E4040C9400004F925F926F927F928F92C3
:1000B0009F92AF92BF92CF92DF92EF92FF92CF9337
:1000C000DF9300D000D0CDB7DEB76B017C010E947A
:1000D00077044B015C0120910801309109014091A6
:1000E0000A0150910B010E941F032B013C0120913A
:1000F0000401309105014091060150910701C701AB
:10010000B6010E941F0369837A838B839C8320E05E
:1001100030E0A901C301B2010E948C03882309F4D5
:100120007AC020E030E0A901C301B2010E9472044C
:100130001816CCF520E030E0A90169817A818B8125
:100140009C810E9472041816BCF4609100017091A9
:10015000010180910201909103012AE037ED43EA09
:100160005CE30E942003609300017093010180937F
:100170000201909303014FC0609100017091010151
:1001800080910201909103012AE037ED43EA5CE39C
:100190000E941F036093000170930101809302018C
:1001A0009093030138C020E030E0A90169817A8191
:1001B0008B819C810E9472041816BCF4609100012E
:1001C0007091010180910201909103012AE037EDC5
:1001D00043EA5CE30E941F036093000170930101F6
:1001E000809302019093030116C060910001709109
:1001F000010180910201909103012AE037ED43EA69
:100200005CE30E94200360930001709301018093DE
:10021000020190930301C0920401D0920501E09283
:100220000601F09207018092080190920901A092C4
:100230000A01B0920B01609100017091010180915F
:100240000201909103010F900F900F900F90DF919A
:10025000CF91FF90EF90DF90CF90BF90AF909F90A5
:100260008F907F906F905F904F9008958F929F92A4
:10027000AF92BF92CF92DF92EF92FF920F931F93B4
:10028000CF93DF930E941F034B015C0129EE30E600
:1002900045E25FEB0E9477046B017C0128E138E0C6
:1002A00043EE5CEBC501B4010E94770400911A0192
:1002B00010911B01D0911C01C0911D01202F312FE5
:1002C0004D2F5C2F0E942003862E972EA82EB92E2C
:1002D000262F372F482F592FC701B6010E94200320
:1002E0006B017C0120E030E0A9010E948C0388238F
:1002F0003CF4802E912EAD2EBC2EC12CD12C76013B
:1003000020E030E040E85FE3C701B6010E947204DC
:1003100018162CF0082D192DDA2DCB2D08C00F2E14
:10032000C12CD12CF0E8EF2EFFE3FF2EF02D802F13
:10033000912FAD2FBC2F80931A0190931B01A09396
:100340001C01B0931D01C701B601DF91CF911F9130
:100350000F91FF90EF90DF90CF90BF90AF909F9064
:100360008F900895CF93DF93CFE2D1E068817981B8
:1003700080E090E00E94C0032CEC35E44FEC5BE39E
:100380000E94770460931F017093200180932101E4
:10039000909322016A817B8180E090E00E94C003FB
:1003A0002EEE33EE40EA5CE30E9477046093230173
:1003B0007093240180932501909326016C817D81A7
:1003C00080E090E00E94C00321E33BE14DE85BE365
:1003D0000E9477046093270170932801809329017C
:1003E00090932A016E817F8180E090E00E94C0039B
:1003F0002DE534E741E55DE30E94770460932B012E
:1004000070932C0180932D0190932E01DF91CF9159
:1004100008951F920F920FB60F9211242F933F93BE
:100420004F935F936F937F938F939F93AF93BF93FC
:10043000EF93FF930E94B201F8942091270130912D
:1004400028014091290150912A0160912B0170915E
:100450002C0180912D0190912E010E9453006093F8
:100460001601709317018093180190931901209140
:100470002B0130912C0140912D0150912E01609162
:1004800016017091170180911801909119010E9435
:10049000360120E030EE47EC54E40E9477040E94DD
:1004A000910370931101609310012091100130911C
:1004B000110180911401909115018217930720F486
:1004C000909311018093100120911001309111013E
:1004D00080911201909113012817390720F490930D
:1004E000110180931001809110019091110190935E
:1004F0008B0080938A007894FF91EF91BF91AF9128
:100500009F918F917F916F915F914F913F912F912B
:100510000F900FBE0F901F901895F89484B18460CF
:1005200084B982E28093800081E1809381008FE32F
:1005300096E0909387008093860088EE93E09093F6
:100540008B0080938A0081E080936F0078940895F7
:10055000ECE7F0E080E4808310921E0180819091AE
:100560000C012081807F9F70892B822B808386E005
:1005700080937B008EEA80937A00789408950E949D
:100580008D0284B1886084B90E94A802FFCF1F92B7
:100590000F920FB60F9211248F939F93AF93BF9337
:1005A000EF93FF93E0911E01E33020F5AE2FB0E012
:1005B0008091780090917900AA0FBB1FA15DBE4F7A
:1005C0008D939C93EF5FE0931E01ACE7B0E09C91AC
:1005D000F0E0E45FFE4F8081907F8F70892B8C93D9
:1005E000EAE7F0E080818064808395B188E0892724
:1005F00085B91AC0F0E08091780090917900EE0FF3
:10060000FF1FE15DFE4F9183808310921E01ECE796
:10061000F0E0908180910C01907F8F70892B808316
:1006200095B188E0892785B9FF91EF91BF91AF918E
:100630009F918F910F900FBE0F901F90189550585B
:10064000BB27AA270E9437030C9438040E942A046F
:1006500038F00E94310420F039F49F3F19F426F459
:100660000C9427040EF4E095E7FB0C942104E92F89
:100670000E94490458F3BA17620773078407950765
:1006800020F079F4A6F50C946B040EF4E0950B2E93
:10069000BA2FA02D0B01B90190010C01CA01A001D4
:1006A0001124FF27591B99F0593F50F4503E68F12F
:1006B0001A16F040A22F232F342F4427585FF3CF70
:1006C000469537952795A795F0405395C9F77EF441
:1006D0001F16BA0B620B730B840BBAF09150A1F08A
:1006E000FF0FBB1F661F771F881FC2F70EC0BA0F10
:1006F000621F731F841F48F4879577956795B79598
:10070000F7959E3F08F0B0CF9395880F08F0992792
:10071000EE0F9795879508950E94FD0308F481E0F8
:1007200008950E94510488F09F5798F0B92F992797
:10073000B751B0F0E1F0660F771F881F991F1AF0CC
:10074000BA95C9F714C0B13091F00E946B04B1E0C2
:1007500008950C946B04672F782F8827B85F39F0C1
:10076000B93FCCF3869577956795B395D9F73EF465
:1007700090958095709561957F4F8F4F9F4F08950D
:10078000E89409C097FB3EF490958095709561952B
:100790007F4F8F4F9F4F9923A9F0F92F96E9BB27E1
:1007A0009395F695879577956795B795F111F8CF5D
:1007B000FAF4BB0F11F460FF1BC06F5F7F4F8F4FC8
:1007C0009F4F16C0882311F096E911C0772321F0BE
:1007D0009EE8872F762F05C0662371F096E8862F56
:1007E00070E060E02AF09A95660F771F881FDAF7AD
:1007F000880F9695879597F90895990F0008550FDA
:10080000AA0BE0E8FEEF16161706E807F907C0F096
:1008100012161306E407F50798F0621B730B840B9E
:10082000950B39F40A2661F0232B242B252B21F478
:1008300008950A2609F4A140A6958FEF811D811D18
:10084000089597F99F6780E870E060E008959FEF52
:1008500080EC089500240A94161617061806090657
:10086000089500240A941216130614060506089526
:10087000092E0394000C11F4882352F0BB0F40F4AE
:10088000BF2B11F460FF04C06F5F7F4F8F4F9F4FEE
:10089000089557FD9058440F551F59F05F3F71F070
:1008A0004795880F97FB991F61F09F3F79F08795D7
:1008B0000895121613061406551FF2CF4695F1DF60
:1008C00008C0161617061806991FF1CF86957105F0
:1008D000610508940895E894BB2766277727CB0124
:1008E00097F908950E94FD0308F48FEF08950E9480
:1008F0008A040C9438040E942A0438F00E943104BF
:1009000020F0952311F00C9421040C942704112459
:100910000C946C040E94490470F3959FC1F3950FE9
:1009200050E0551F629FF001729FBB27F00DB11D73
:10093000639FAA27F00DB11DAA1F649F6627B00D03
:10094000A11D661F829F2227B00DA11D621F739FEC
:10095000B00DA11D621F839FA00D611D221F749FFA
:100960003327A00D611D231F849F600D211D822F41
:10097000762F6A2F11249F5750409AF0F1F0882368
:100980004AF0EE0FFF1FBB1F661F771F881F915095
:100990005040A9F79E3F510580F00C9421040C941F
:1009A0006C045F3FE4F3983ED4F3869577956795A2
:1009B000B795F795E7959F5FC1F7FE2B880F911DBF
:0C09C0009695879597F90895F894FFCF5D
:1009CC0000008A41000088413433E74104030001F0
:0A09DC00C8006400DC050000C04004
:00000001FF
