S01F0000506F7765725F636F6E7665727465725F636F6E74726F6C2E7372656361
S11300000C9434000C9451000C9451000C94510045
S11300100C9451000C9451000C9451000C94510018
S11300200C9451000C9451000C9451000C94510008
S11300300C9451000C94DB000C9451000C9451006E
S11300400C9451000C9451000C9451000C945100E8
S11300500C9451000C94A6010C9451000C94510082
S11300600C9451000C94510011241FBECFEFD8E022
S1130070DEBFCDBF11E0A0E0B1E0ECE2F7E002C0EA
S113008005900D92AE30B107D9F721E0AEE0B1E0B2
S113009001C01D92A133B207E1F70E9479010C94CB
S11300A094030C940000CF92DF92EF92FF920E948F
S11300B0FE016B017C012FE632E143E85AE30E9422
S11300C0220318163CF481E090E090930F01809392
S11300D00E0115C02FE632E143E85AEBC701B60121
S11300E00E946B0288233CF410920F0110920E01BF
S11300F080E090E004C080910E0190910F01FF9088
S1130100EF90DF90CF900895CF93DF93C9E2D1E0D1
S11301106881798180E090E00E9470022CEC35E4E3
S11301204FEC5BE30E9427036093190170931A015B
S113013080931B0190931C016A817B8180E090E095
S11301400E9470022EEE33EE40EA5CE30E94270325
S113015060931D0170931E0180931F0190932001F1
S11301606C817D8180E090E00E94700221E33BE19C
S11301704DE85BE30E942703609321017093220101
S113018080932301909324016E817F8180E090E02D
S11301900E9470022DE534E741E55DE30E942703E8
S11301A06093250170932601809327019093280181
S11301B0DF91CF9108951F920F920FB60F921124E1
S11301C02F933F934F935F936F937F938F939F935B
S11301D0AF93BF93EF93FF930E948400F894209110
S11301E0190130911A0140911B0150911C01609139
S11301F00A0170910B0180910C0190910D010E94F4
S113020053002FE336E0AC01429FC001439F900DA1
S1130210529F900D11249093050180930401209125
S11302200401309105018091080190910901821720
S1130230930720F490930501809304012091040115
S11302403091050180910601909107012817390723
S113025020F490930501809304018091040190910E
S1130260050190938B0080938A007894FF91EF911D
S1130270BF91AF919F918F917F916F915F914F91BA
S11302803F912F910F900FBE0F901F901895F894E7
S113029084B1846084B982E28093800081E1809398
S11302A081008FE396E0909387008093860088EE28
S11302B093E090938B0080938A0081E080936F0099
S11302C078940895ECE7F0E080E4808310921001C4
S11302D08081909100012081807F9F70892B822BE7
S11302E0808386E080937B008EEA80937A00789402
S11302F008950E94470184B1886084B90E94620114
S11303008091150190911601A0911701B0911801E7
S113031040911101509112016091130170911401E7
S11303208C019D01041B150B260B370BB901A80189
S1130330483E53406105710518F380931101909371
S11303401201A0931301B0931401DACF1F920F92FC
S11303500FB60F9211248F939F93AF93BF93EF9394
S1130360FF93E0911001E33020F5AE2FB0E08091CF
S1130370780090917900AA0FBB1FA75DBE4F8D93A3
S11303809C93EF5FE0931001ACE7B0E09C91F0E048
S1130390E050FF4F8081907F8F70892B8C93EAE728
S11303A0F0E080818064808395B188E0892785B9F5
S11303B01AC0F0E08091780090917900EE0FFF1F51
S11303C0E75DFE4F9183808310921001ECE7F0E02B
S11303D0908180910001907F8F70892B808395B1EB
S11303E088E0892785B9FF91EF91BF91AF919F91E3
S11303F08F910F900FBE0F901F9018955058BB27E8
S1130400AA270E9416020C94E8020E94DA0238F02D
S11304100E94E10220F039F49F3F19F426F40C9471
S1130420D7020EF4E095E7FB0C94D102E92F0E9469
S1130430F90258F3BA17620773078407950720F087
S113044079F4A6F50C941B030EF4E0950B2EBA2F49
S1130450A02D0B01B90190010C01CA01A0011124C6
S1130460FF27591B99F0593F50F4503E68F11A1672
S1130470F040A22F232F342F4427585FF3CF469503
S113048037952795A795F0405395C9F77EF41F1625
S1130490BA0B620B730B840BBAF09150A1F0FF0FEF
S11304A0BB1F661F771F881FC2F70EC0BA0F621FDB
S11304B0731F841F48F4879577956795B795F795CB
S11304C09E3F08F0B0CF9395880F08F09927EE0F60
S11304D09795879508950E94AD0208F481E00895E8
S11304E0E89409C097FB3EF49095809570956195CA
S11304F07F4F8F4F9F4F9923A9F0F92F96E9BB2780
S11305009395F695879577956795B795F111F8CFFB
S1130510FAF4BB0F11F460FF1BC06F5F7F4F8F4F66
S11305209F4F16C0882311F096E911C0772321F05C
S11305309EE8872F762F05C0662371F096E8862FF4
S113054070E060E02AF09A95660F771F881FDAF74B
S1130550880F9695879597F90895990F0008550F78
S1130560AA0BE0E8FEEF16161706E807F907C0F035
S113057012161306E407F50798F0621B730B840B3D
S1130580950B39F40A2661F0232B242B252B21F417
S113059008950A2609F4A140A6958FEF811D811DB7
S11305A0089597F99F6780E870E060E008959FEFF1
S11305B080EC089500240A941616170618060906F6
S11305C0089500240A9412161306140605060895C5
S11305D0092E0394000C11F4882352F0BB0F40F44D
S11305E0BF2B11F460FF04C06F5F7F4F8F4F9F4F8D
S11305F0089557FD9058440F551F59F05F3F71F00F
S11306004795880F97FB991F61F09F3F79F0879575
S11306100895121613061406551FF2CF4695F1DFFE
S113062008C0161617061806991FF1CF869571058E
S1130630610508940895E894BB2766277727CB01C2
S113064097F908950E94AD0208F48FEF08950E946F
S11306503A030C94E8020E94DA0238F00E94E102A4
S113066020F0952311F00C94D1020C94D70211249C
S11306700C941C030E94F90270F3959FC1F3950F2B
S113068050E0551F629FF001729FBB27F00DB11D12
S1130690639FAA27F00DB11DAA1F649F6627B00DA2
S11306A0A11D661F829F2227B00DA11D621F739F8B
S11306B0B00DA11D621F839FA00D611D221F749F99
S11306C03327A00D611D231F849F600D211D822FE0
S11306D0762F6A2F11249F5750409AF0F1F0882307
S11306E04AF0EE0FFF1FBB1F661F771F881F915034
S11306F05040A9F79E3F510580F00C94D1020C9410
S11307001C035F3FE4F3983ED4F386957795679591
S1130710B795F795E7959F5FC1F7FE2B880F911D5D
S10F07209695879597F90895F894FFCFFB
S111072C04030001C8006400DC05CDCCCC3E03
S9030000FC
