S01200005450325F5061727465442E737265639D
S11300000C9434000C9446000C9446000C94460066
S11300100C9446000C9446000C9446000C94460044
S11300200C9446000C9446000C9446000C948300F7
S11300300C9446000C9446000C9446000C94460024
S11300400C9446000C9446000C9446000C94460014
S11300500C9446000C9446000C9446000C94460004
S11300600C9446000C94460011241FBECFEFD8E038
S1130070DEBFCDBF21E0A0E0B1E001C01D92AE30F3
S1130080B207E1F70E9459010C949B030C94000001
S113009010928000E1E8F0E08081886080838081B4
S11300A08460808381E792E0909389008093880044
S11300B0EFE6F0E0808182608083089580E480939D
S11300C07C0086E880937A0008958AB188608AB9B2
S11300D00E945E000E94480078940895ECE7F0E0E6
S11300E09081907F8F70892B8083EAE7F0E0808194
S11300F08064808380917A0086FDFCCF80917800B3
S11301009091790008951F920F920FB60F921124C7
S11301102F933F934F935F936F937F938F939F930B
S1130120AF93BF93EF93FF93ECE7F0E08081807F80
S11301308083EAE7F0E080818064808380917A00A4
S113014086FDFCCF2091780030917900C901880F99
S1130150991F880F991F280F391FA1E8B0E80E9442
S11301608C03880F892F881F990B9195BC0180E01F
S113017090E00E94680260930601709307018093E7
S113018008019093090180E090E00E946E009C01B8
S1130190220F331F220F331F280F391FA1E8B0E8A5
S11301A00E948C03880F892F881F990B9195BC019D
S11301B080E090E00E94680260930601709307015A
S11301C08093080190930901ECE7F0E08081807F3F
S11301D081608083EAE7F0E080818064808380919D
S11301E07A0086FDFCCF609178007091790080E000
S11301F090E00E946802609302017093030180936F
S113020004019093050181E090E00E946E00BC011E
S113021080E090E00E946802609302017093030101
S11302208093040190930501ECE7F0E08081807FE6
S113023083608083EAE7F0E080818064808380913A
S11302407A0086FDFCCF809178009091790083E05C
S113025090E00E946E00ECE7F0E08081807F846093
S11302608083EAE7F0E080818064808380917A0073
S113027086FDFCCF809178009091790084E090E035
S11302800E946E0081E090E0909301018093000150
S1130290FF91EF91BF91AF919F918F917F916F915A
S11302A05F914F913F912F910F900FBE0F901F9030
S11302B018950E94650000E010E0D0E0C0E0809155
S11302C00001909101010197D1F720910A01309129
S11302D00B0140910C0150910D0160E070E08CE83D
S11302E091E40E94C7016B017C0129EE30E645E2EE
S11302F05FEB0E941F034B015C0128E138E043EEF1
S11303005BEBC701B6010E941F039B01AC01602F88
S1130310712F8D2F9C2F0E94C801C62ED72EE82E38
S1130320F92EA5019401602F712F8D2F9C2F0E940F
S1130330C8014B015C0120E030E040E85FE30E942B
S11303401A03181644F40F2E812C912CF0E8AF2ECA
S1130350FFE3BF2EF02D20E030E0A901C501B40178
S11303600E94340288231CF4812C912C540120E037
S113037030E04FE753E4C501B4010E941F030E941B
S1130380390267BD0C2D1D2DDE2DCF2D98CF505871
S1130390BB27AA270E94DF010C94E0020E94D2022C
S11303A038F00E94D90220F039F49F3F19F426F462
S11303B00C94CF020EF4E095E7FB0C94C902E92FEC
S11303C00E94F10258F3BA1762077307840795076E
S11303D020F079F4A6F50C9413030EF4E0950B2E9B
S11303E0BA2FA02D0B01B90190010C01CA01A00183
S11303F01124FF27591B99F0593F50F4503E68F1DE
S11304001A16F040A22F232F342F4427585FF3CF1E
S1130410469537952795A795F0405395C9F77EF4EF
S11304201F16BA0B620B730B840BBAF09150A1F038
S1130430FF0FBB1F661F771F881FC2F70EC0BA0FBE
S1130440621F731F841F48F4879577956795B79546
S1130450F7959E3F08F0B0CF9395880F08F0992741
S1130460EE0F9795879508950E94A50208F481E000
S113047008950E94F90288F09F5798F0B92F9927A0
S1130480B751B0F0E1F0660F771F881F991F1AF07B
S1130490BA95C9F714C0B13091F00E941303B1E0CA
S11304A008950C941303672F782F8827B85F39F0C9
S11304B0B93FCCF3869577956795B395D9F73EF414
S11304C090958095709561957F4F8F4F9F4F0895BC
S11304D0E89409C097FB3EF49095809570956195DA
S11304E07F4F8F4F9F4F9923A9F0F92F96E9BB2790
S11304F09395F695879577956795B795F111F8CF0C
S1130500FAF4BB0F11F460FF1BC06F5F7F4F8F4F76
S11305109F4F16C0882311F096E911C0772321F06C
S11305209EE8872F762F05C0662371F096E8862F04
S113053070E060E02AF09A95660F771F881FDAF75B
S1130540880F9695879597F90895990F0008550F88
S1130550AA0BE0E8FEEF16161706E807F907C0F045
S113056012161306E407F50798F0621B730B840B4D
S1130570950B39F40A2661F0232B242B252B21F427
S113058008950A2609F4A140A6958FEF811D811DC7
S1130590089597F99F6780E870E060E008959FEF01
S11305A080EC089500240A94161617061806090606
S11305B0089500240A9412161306140605060895D5
S11305C0092E0394000C11F4882352F0BB0F40F45D
S11305D0BF2B11F460FF04C06F5F7F4F8F4F9F4F9D
S11305E0089557FD9058440F551F59F05F3F71F01F
S11305F04795880F97FB991F61F09F3F79F0879586
S11306000895121613061406551FF2CF4695F1DF0E
S113061008C0161617061806991FF1CF869571059E
S1130620610508940895E894BB2766277727CB01D2
S113063097F908950E94A50208F48FEF08950E9487
S113064032030C94E0020E94D20238F00E94D902D4
S113065020F0952311F00C94C9020C94CF021124BC
S11306600C9414030E94F10270F3959FC1F3950F4B
S113067050E0551F629FF001729FBB27F00DB11D22
S1130680639FAA27F00DB11DAA1F649F6627B00DB2
S1130690A11D661F829F2227B00DA11D621F739F9B
S11306A0B00DA11D621F839FA00D611D221F749FA9
S11306B03327A00D611D231F849F600D211D822FF0
S11306C0762F6A2F11249F5750409AF0F1F0882317
S11306D04AF0EE0FFF1FBB1F661F771F881F915044
S11306E05040A9F79E3F510580F00C94C9020C9428
S11306F014035F3FE4F3983ED4F3869577956795AA
S1130700B795F795E7959F5FC1F7FE2B880F911D6D
S11307109695879597F90895A29FB001B39FC0015C
S1130720A39F700D811D1124911DB29F700D811D19
S10D07301124911D0895F894FFCFE1
S9030000FC
